:100000000C9442010C9473010C9473010C947301D1
:100010000C9473010C9473010C9473010C94730190
:100020000C9473010C9473010C9473010C94730180
:100030000C9473010C9473010C9473010C94730170
:100040000C9473010C9473010C9473010C94730160
:100050000C9473010C9473010C9473010C947B0247
:100060000C9473010C940C050C94D8050C9473013A
:100070000C9473010C9473010C9473010C94730130
:100080000C9473010C9473010C9473010C94730120
:100090000C943F050C9417060C9473010C94730197
:1000A0000C9473010C9473010C9473010C94730100
:1000B0000C9473010C9473010C9473010C947301F0
:1000C0000C9473010C9473010C9473010C947205DD
:1000D0000C9456060C9473010C94A5050C9495068B
:1000E0000C94730189038C037F038303C303900380
:1000F00094039A039E03A203A803AC03B003C303B3
:10010000B603BA03BE030C94B6030C9489030C9493
:10011000BE030C9485040C9490030C949E030C94E1
:100120005C070C9459040C94AC030C94B0030C942D
:100130002E080C947F030C94C3030C94A8030C9416
:10014000A2030C948C030C9469040C9483030C9408
:10015000BA030C94A5040C94B0040C949A030C9468
:1001600094030000090A02080B0C0D0706030401A2
:10017000000000000000000000000000000000007F
:10018000000000000000000000000000000011104E
:100190000F00000000000000000000000000000050
:1001A00000000000000000000102102020080810DC
:1001B00020401020408002010201080402010102D7
:1001C00004081020408080402010080402018004B0
:1001D000020180402010080402010804020101020B
:1001E000040810204080010204081020408005050A
:1001F0000505070508080808020202020A0A08089D
:1002000004040404010101010101010103030303CA
:1002100003030303040707070C0C0C0C0C0C0C0C59
:100220000202020206060606060606060B0B0B0B6A
:100230000B0B0B0B000020002300260029002C00D4
:100240002F00320000010000030106010901000037
:100250002200250028002B002E003100340002016E
:100260000000050108010B01000021002400270007
:100270002A002D00300033000101000004010701B5
:100280000A015C0711241FBECFEFD1E2DEBFCDBF54
:1002900000E00CBF12E0A0E0B2E0EAE0F1E100E033
:1002A0000BBF02C007900D92AE31B107D9F724E021
:1002B000AEE1B2E001C01D92A53DB207E1F711E049
:1002C000C2E4D1E000E006C021970109802FFE01C1
:1002D0000E947B08C134D10780E00807A9F70E947B
:1002E0005C020C9456080C9400000F931F93CF935C
:1002F000DF930E94100340E855E260E070E083E97C
:1003000092E00E94D406C4E0D2E08E0161E08881D0
:100310000E94C403229660E0F80180810E940004DC
:10032000F2E0CE30DF0789F762E0809102020E949E
:10033000C40362E080910002DF91CF911F910F9181
:100340000C94C403CF92DF92EF92FF920F931F930E
:10035000CF93DF9304E012E0C0E0D0E010921F02E0
:1003600010921E027801F80180810E943004892BCE
:1003700049F4CC0FDD1FCC5FDD4F61E088810E9426
:10038000000414C080911E0290911F020196909368
:100390001F0280931E020E5F1F4F60E0F7018081F5
:1003A0000E9400042196C530D105C1F6C0911E02FD
:1003B000D0911F026E01CC0CDD1CE12CF12CC2305F
:1003C000D105DCF087010C0D1D1D0C5F1D4F81E078
:1003D000F801208131812130310509F080E00E944F
:1003E0003004892B29F060E0F80180810E9400042C
:1003F0002197F2E0EF1AF108E2CF65E070E080E0CB
:1004000090E00E94EA028091220290912302892BBF
:1004100049F4809102020E94300490932302809359
:100420002202F1CFDF91CF911F910F91FF90EF90BA
:10043000DF90CF900895EF92FF920F931F93CF9389
:10044000DF9304E012E0C0E0D0E07801F8018081A1
:100450000E943004019749F4CC0FDD1FCC5FDD4FC3
:1004600060E088810E9400040BC00E5F1F4F61E0B6
:10047000F70180810E9400042196C530D10529F73B
:1004800065E070E080E090E00E94EA028091200246
:1004900090912102892B49F4809100020E9430043E
:1004A0009093210280932002F1CFDF91CF911F9191
:1004B0000F91FF90EF9008950E94750180910002C6
:1004C0000E943004909321028093200280910202C6
:1004D0000E9430049093230280932202892B11F40E
:1004E0000E94A2018091200290912102892B31F774
:1004F0000E941B02E3CF1F920F920FB60F9211249E
:100500002F933F938F939F93AF93BF938091250237
:1005100090912602A0912702B091280230912402E6
:1005200023E0230F2D3720F40196A11DB11D05C036
:1005300026E8230F0296A11DB11D2093240280936B
:10054000250290932602A0932702B093280280915F
:10055000290290912A02A0912B02B0912C020196BF
:10056000A11DB11D8093290290932A02A0932B0212
:10057000B0932C02BF91AF919F918F913F912F919A
:100580000F900FBE0F901F9018953FB7F894809171
:10059000290290912A02A0912B02B0912C0226B53B
:1005A000A89B05C02F3F19F00196A11DB11D3FBFAB
:1005B000BA2FA92F982F8827820F911DA11DB11D39
:1005C000BC01CD0142E0660F771F881F991F4A9535
:1005D000D1F70895CF92DF92EF92FF92CF93DF93FE
:1005E0006B017C010E94C502EB01C114D104E1043E
:1005F000F10479F00E94C5026C1B7D0B683E7340CC
:10060000A0F381E0C81AD108E108F108C851DC4F15
:10061000ECCFDF91CF91FF90EF90DF90CF900895D6
:10062000789484B5826084BD84B5816084BD85B5CD
:10063000826085BD85B5816085BDEEE6F0E0808194
:1006400081608083E1E8F0E01082808182608083B5
:10065000808181608083E0E8F0E080818160808338
:10066000E1EBF0E0808184608083E0EBF0E080816A
:1006700081608083E1E9F0E0808182608083808115
:1006800081608083E0E9F0E0808181608083E1EA3D
:10069000F0E0808182608083808181608083E0EAF5
:1006A000F0E0808181608083E1E2F1E0808182601E
:1006B0008083808181608083E0E2F1E080818160DD
:1006C0008083EAE7F0E080818460808380818260BB
:1006D00080838081816080838081806880831092A4
:1006E000C100089590E0FC013197E131F10508F077
:1006F0004AC08827EE58FF4F8F4F0C947B0880919B
:1007000080008F7703C0809180008F7D8093800070
:10071000089584B58F7702C084B58F7D84BD089518
:100720008091B0008F7703C08091B0008F7D80935F
:10073000B0000895809190008F7707C0809190005D
:100740008F7D03C080919000877F809390000895F3
:100750008091A0008F7707C08091A0008F7D03C09B
:100760008091A000877F8093A00008958091200150
:100770008F7707C0809120018F7D03C08091200179
:10078000877F809320010895CF93DF9390E0FC0151
:10079000E855FE4F2491FC01E251FE4F84918823DD
:1007A00061F190E0880F991FFC01E859FD4FC59158
:1007B000D491FC01E25BFD4FA591B491611109C098
:1007C0009FB7F8948881209582238883EC912E230B
:1007D0000BC0623061F49FB7F8943881822F809506
:1007E00083238883EC912E2B2C939FBF06C08FB759
:1007F000F894E8812E2B28838FBFDF91CF91089545
:100800001F93CF93DF93282F30E0F901EE59FE4F6D
:100810008491F901E855FE4FD491F901E251FE4F60
:10082000C491CC23C9F0162F81110E947203EC2FC2
:10083000F0E0EE0FFF1FE25BFD4FA591B4918FB783
:10084000F894111105C09C91ED2FE095E92302C0A9
:10085000EC91ED2BEC938FBFDF91CF911F91089519
:10086000CF93DF93282F30E0F901EE59FE4F8491AA
:10087000F901E855FE4FD491F901E251FE4FC491C0
:10088000CC2391F081110E947203EC2FF0E0EE0F67
:10089000FF1FEC5CFD4FA591B491EC91ED2381E03D
:1008A00090E021F480E002C080E090E0DF91CF9101
:1008B0000895FC0124853585F901E05CFF4F8081B6
:1008C0009181329620813181821B930B8F739927FE
:1008D0000895DC011C96ED91FC911D97DF01A05C51
:1008E000BF4F2D913C91119712968D919C9111972C
:1008F0002817390739F08D919C91E80FF91F8081F5
:1009000090E008958FEF9FEF0895FC01A485B585D1
:10091000FD01E05CFF4F2081318132968081918121
:100920002817390779F080819181A80FB91F8C9120
:10093000208131812F5F3F4F2F73332731832083F5
:1009400090E008958FEF9FEF0895FC0181A1882327
:1009500029F0A489B5898C9186FFFBCF11A2089557
:100960000F931F93CF93DF93FC01A685B7858D016D
:10097000005C1F4FE8018881998101968F73992748
:10098000AD014E5B5F4FEA012881398182179307E1
:10099000D1F3E80128813981A20FB31F6C93A6859A
:1009A000B785A05CBF4F11969C938E93A689B7899B
:1009B0002C9181E090E0078C02C0880F991F0A9467
:1009C000E2F7822B8C9381E081A30488F589E02DE6
:1009D00080818064808381E090E0DF91CF911F91DE
:1009E0000F910895FB01E05CFF4F208131812F5F63
:1009F0003F4F2F733327DB01AE5BBF4F4D915C91AF
:100A00002417350741F040815181DB01A40FB51F48
:100A10008C933183208308951F920F920FB60F920B
:100A200011240BB60F922F933F934F935F936F93C5
:100A30007F938F939F93AF93BF93EF93FF93809197
:100A4000C00082FD07C08091C60061E974E00E9489
:100A5000F20402C08091C600FF91EF91BF91AF9167
:100A60009F918F917F916F915F914F913F912F91C6
:100A70000F900BBE0F900FBE0F901F9018951F92F6
:100A80000F920FB60F9211240BB60F922F933F9334
:100A90004F935F936F937F938F939F93AF93BF9386
:100AA000EF93FF938091C80082FD07C08091CE0034
:100AB00069E074E00E94F20402C08091CE00FF91D0
:100AC000EF91BF91AF919F918F917F916F915F91C6
:100AD0004F913F912F910F900BBE0F900FBE0F9033
:100AE0001F9018951F920F920FB60F9211240BB6FC
:100AF0000F922F933F934F935F936F937F938F93B7
:100B00009F93AF93BF93EF93FF938091D00082FDAB
:100B100007C08091D60061E873E00E94F20402C031
:100B20008091D600FF91EF91BF91AF919F918F91EE
:100B30007F916F915F914F913F912F910F900BBEDD
:100B40000F900FBE0F901F9018951F920F920FB627
:100B50000F9211240BB60F922F933F934F935F93F5
:100B60006F937F938F939F93AF93BF93EF93FF9375
:100B70008091300182FD07C08091360169EF72E0FB
:100B80000E94F20402C080913601FF91EF91BF9163
:100B9000AF919F918F917F916F915F914F913F9115
:100BA0002F910F900BBE0F900FBE0F901F901895B6
:100BB0001F920F920FB60F9211240BB60F922F9324
:100BC0003F938F939F93EF93FF9320918D043091E8
:100BD0008E0480918F04909190042817390731F486
:100BE0008091C1008F7D8093C10014C0E0918F047B
:100BF000F0919004E35BFB4F208180918F049091F2
:100C0000900401968F7399279093900480938F049A
:100C10002093C600FF91EF919F918F913F912F916B
:100C20000F900BBE0F900FBE0F901F9018951F9244
:100C30000F920FB60F9211240BB60F922F933F9382
:100C40008F939F93EF93FF932091050430910604B7
:100C500080910704909108042817390731F4809196
:100C6000C9008F7D8093C90014C0E0910704F09102
:100C70000804EB53FC4F20818091070490910804F5
:100C800001968F739927909308048093070420930B
:100C9000CE00FF91EF919F918F913F912F910F90F7
:100CA0000BBE0F900FBE0F901F9018951F920F92C2
:100CB0000FB60F9211240BB60F922F933F938F9381
:100CC0009F93EF93FF9320917D0330917E0380915A
:100CD0007F03909180032817390731F48091D10068
:100CE0008F7D8093D10014C0E0917F03F091800349
:100CF000E35CFC4F208180917F03909180030196FB
:100D00008F7399279093800380937F032093D6005D
:100D1000FF91EF919F918F913F912F910F900BBE7B
:100D20000F900FBE0F901F9018951F920F920FB645
:100D30000F9211240BB60F922F933F938F939F9393
:100D4000EF93FF932091F5023091F6028091F70224
:100D50009091F8022817390731F4809131018F7D85
:100D60008093310114C0E091F702F091F802EB5446
:100D7000FD4F20818091F7029091F80201968F73C8
:100D800099279093F8028093F70220933601FF9100
:100D9000EF919F918F913F912F910F900BBE0F90EC
:100DA0000FBE0F901F901895CF92DF92EF92FF9297
:100DB0000F931F93CF93DF93EC016A017B014115E1
:100DC000514E6105710509F1EC89FD8981E090E0E2
:100DD00008A002C0880F991F0A94E2F7808360E0A0
:100DE00079E08DE390E0A70196010E9459088901FE
:100DF0009A01015011092109310936952795179556
:100E00000795980101151041A8F0EC89FD89108221
:100E100060E874E88EE190E0A70196010E9459080D
:100E2000DA01C9010197A109B109B695A79597956E
:100E300087959C01E889F9893083EA89FB892083B9
:100E400019A2EE89FF89408181E090E09C010C8C21
:100E500002C0220F331F0A94E2F7242B2083EE896D
:100E6000FF8940819C010D8C02C0220F331F0A9420
:100E7000E2F7242B2083EE89FF8940819C010E8CB0
:100E800002C0220F331F0A94E2F7242B2083EE893D
:100E9000FF8920810F8C02C0880F991F0A94E2F706
:100EA000809582238083DF91CF911F910F91FF90D6
:100EB000EF90DF90CF900895CF92DF92EF92FF9264
:100EC000E3E9F2E01382128288EEC82E83E0D82E86
:100ED000E12CF12CC482D582E682F78262E172E0D5
:100EE0007183608381E994E0958784878DE494E041
:100EF0009787868785EC90E0918B808B84EC90E0DF
:100F0000938B828B80EC90E0958B848B81EC90E0CE
:100F1000978B868B82EC90E0918F808F86EC90E0AF
:100F2000938F828F44E0448F33E0358F27E0268F04
:100F300095E0978F81E080A3E1E7F2E013821282CF
:100F4000C482D582E682F78271836083A9E0B4E02F
:100F5000B587A487A5ECB3E0B787A687ADECB0E072
:100F6000B18BA08BACECB0E0B38BA28BA8ECB0E063
:100F7000B58BA48BA9ECB0E0B78BA68BAAECB0E044
:100F8000B18FA08FAEECB0E0B38FA28F448F358FBE
:100F9000268F978F80A3EFE4F2E013821282C4823F
:100FA000D582E682F78271836083A1E8B3E0B587DA
:100FB000A487ADE3B3E0B787A687A5EDB0E0B18B1A
:100FC000A08BA4EDB0E0B38BA28BA0EDB0E0B58B0D
:100FD000A48BA1EDB0E0B78BA68BA2EDB0E0B18FF2
:100FE000A08FA6EDB0E0B38FA28F448F358F268FF0
:100FF000978F80A3EDE2F2E013821282C482D58241
:10100000E682F7827183608369EF72E07587648797
:1010100065EB72E07787668765E371E0718B608BC3
:1010200064E371E0738B628B60E371E0758B648BBA
:1010300061E371E0778B668B62E371E0718F608FA3
:1010400066E371E0738F628F448F358F268F978FA1
:1010500080A3FF90EF90DF90CF900895CF92DF9222
:10106000EF92FF920F931F93CF93DF936C01EB01ED
:101070007B01E40EF51E00E010E0CE15DF0561F007
:101080006991D601ED91FC910190F081E02DC601AE
:101090001995080F191FF1CFC801DF91CF911F914A
:1010A0000F91FF90EF90DF90CF900895F8940C94FB
:1010B0008308A1E21A2EAA1BBB1BFD010DC0AA1FAB
:1010C000BB1FEE1FFF1FA217B307E407F50720F0B1
:1010D000A21BB30BE40BF50B661F771F881F991F2C
:1010E0001A9469F760957095809590959B01AC0175
:1010F000BD01CF010895EE0FFF1F881F8BBF079022
:0A110000F691E02D1994F894FFCF4A
:10110A000700060009000A000B000C000D00000091
:0E111A000000B0042E08590485046904A504E1
:00000001FF
